:020000040800F2
:100000000018002035220008FD210008FF2100080B
:1000100000000000000000000000000000000000E0
:1000200000000000000000000000000001220008A5
:100030000000000000000000032200080522000864
:10004000B5220008B5220008B5220008B522000834
:10005000B5220008B5220008B5220008B522000824
:10006000B5220008B5220008B5220008B522000814
:10007000B5220008B5220008B5220008B522000804
:10008000B52200080000000000000000B5220008B2
:1000900000000000B5220008B5220008B5220008C3
:1000A00000000000B5220008B52200081122000857
:1000B000B52200080000000021220008B522000837
:1000C00010B5064C2378002B07D1054B002B02D02E
:1000D000044800E000BF0123237010BD0C00002085
:1000E0000000000010230008044B10B5002B03D0C3
:1000F0000349044800E000BF10BDC04600000000F6
:100100001000002010230008002243088B4274D303
:1001100003098B425FD3030A8B4244D3030B8B4208
:1001200028D3030C8B420DD3FF22090212BA030C11
:100130008B4202D31212090265D0030B8B4219D3F2
:1001400000E0090AC30B8B4201D3CB03C01A524112
:10015000830B8B4201D38B03C01A5241430B8B425A
:1001600001D34B03C01A5241030B8B4201D30B0343
:10017000C01A5241C30A8B4201D3CB02C01A52416A
:10018000830A8B4201D38B02C01A5241430A8B422D
:1001900001D34B02C01A5241030A8B4201D30B0216
:1001A000C01A5241CDD2C3098B4201D3CB01C01A30
:1001B000524183098B4201D38B01C01A524143093A
:1001C0008B4201D34B01C01A524103098B4201D328
:1001D0000B01C01A5241C3088B4201D3CB00C01A95
:1001E000524183088B4201D38B00C01A524143080D
:1001F0008B4201D34B00C01A5241411A00D2014632
:10020000524110467047FFE701B5002000F006F8A4
:1002100002BDC0460029F7D076E770477047C04658
:1002200010B504000F4B1978FA208000FFF76CFF1F
:1002300001000D4B1868FFF767FF00F047FC00282E
:100240000DD1032C01D901200AE001300022210048
:10025000404200F0FDFB034B5C60002000E0012009
:1002600010BDC046000000200800002010B5064A5E
:10027000136810210B4313600020FFF7D1FF01F03A
:1002800043FF002010BDC04600200240034A116811
:10029000034B1B785B1813607047C046F0000020CA
:1002A00000000020014B18687047C046F000002095
:1002B00070B5041E00D1A0E02023C35C002B1AD02F
:1002C0002268136802218B431360FFF7EBFF0500E0
:1002D00023685A68920711D5FFF7E4FF401B0A28EC
:1002E000F6D9626A80239B021343636220230522AE
:1002F000E254012070BD01F031FFE1E71A680121ED
:100300000A431A60FFF7CEFF050023685A68D20738
:100310000ED4FFF7C7FF401B0A28F6D9626A802374
:100320009B021343636220230522E2540120E1E78C
:10033000227E012A3ED01A6880218A431A60637E99
:10034000012B3CD02268136840218B431360A37EAD
:10035000012B3AD02268136820218B431360E37E7F
:10036000012B38D02268136810210B431360237FC0
:10037000012B36D02268136808218B431360637FFA
:10038000012B34D02268136804218B431360A368C7
:10039000E268134322691343626913436268013AB6
:1003A00021681343CB610023636220330122E254AE
:1003B00000209FE71A6880210A431A60BFE722687D
:1003C000136840210B431360C1E7226813682021A2
:1003D0000B431360C3E72268136810218B4313603B
:1003E000C5E72268136808210B431360C7E722683A
:1003F000136804210B431360C9E701207AE730B585
:1004000003682022825C013AD2B2012A06D9426AEC
:100410008023DB0213434362012030BD8024A4000B
:1004200018590122104318511F204C692040824066
:100430008725AD005859D44320405851C869002839
:1004400018D1103D585920405851C86805044868D3
:100450000004000C054348694830C000C550886856
:10046000050408680004000C054348694830C000D2
:1004700018184560C86901281AD08869002832D147
:100480008125AD005859204058510869002830D1C5
:100490008525AD00585904405C51096A01292ED0C8
:1004A000802189005A58012082435A500020B4E725
:1004B0008325AD0058591043585108680504486811
:1004C0000004000C054348694830C000C5508868E6
:1004D0000504C8680004000C054348694830C000A2
:1004E00018184560C9E78125AD0058591043585187
:1004F000CBE78524A400185910431851CDE7872075
:10050000800019580A431A50CAE770B52024045DC8
:100510000568AD68013CE4B2012C06D9426A80232B
:10052000DB0213434362012070BDE02464052542D1
:1005300066D02D0E03242540022D43D80124AC4063
:100540001C608B68002B44D10B685B05CC6823438F
:100550002C00183424010668A3512B0018331B010A
:100560000468A44663440C695C600B7D012B3BD09E
:10057000D3791B06917909040B43517909020B4386
:1005800011790B432C01016809198D31FF310B6082
:10059000D3781B06917809040B43517809020B4369
:1005A0001278134302689446644422008932FF3271
:1005B0001360026818352D01AB5801210B43AB5075
:1005C0000020B1E7426A80231B04134343620120E9
:1005D000AAE74C68E4002343CC6823432C0018347A
:1005E00024010668A351B8E72B0018331B010168EA
:1005F0008C4663445C688021490021435960B7E719
:10060000426A80239B031343436201208CE710B5A9
:100610002023C35C013BDBB2012B06D9426A802355
:10062000DB0213434362012010BDCB0704D50268EF
:1006300093688024234393608B0705D502689468F0
:1006400080231B02234393604B0707D50268916800
:1006500080231B040B4393600020E5E70020E3E7C1
:1006600070B52024045D013CE4B2012C06D9426A35
:100670008023DB0213434362012070BD002976D141
:100680000468E468A4076BD00C001B3424010568DF
:10069000655904242C40946074D10C001B3424014F
:1006A00005686459640D14600C001B34240105684E
:1006B000665902253540D56005682D196E680F25ED
:1006C0003540156105682D196E68360AFF253540DD
:1006D00095610568AC4664446468240C54610A0161
:1006E0000468A418B934FF3424681C700468A41882
:1006F000B934FF342468240A5C700468A418B9343F
:10070000FF342468240C9C700468A418B934FF34A6
:100710002468240EDC700468A418BD34FF342468F7
:100720001C710468A418BD34FF342468240A5C7169
:100730000468A418BD34FF342468240C9C71046838
:10074000A4466244BD32FF321268120EDA710029EB
:1007500020D10268D36820310B43D36000208CE79E
:10076000426A80239B0313434362012085E70468A8
:100770002469A40788D1426A80239B031343436200
:1007800001207AE70C001B34240105686459E40851
:10079000546089E70268136920210B43136100202C
:1007A0006BE72023C35C013BDBB2012B06D9426A15
:1007B0008023DB02134343620120704702685369C0
:1007C000194351610020F8E7704770477047704740
:1007D0007047704770477047704770477047704761
:1007E000F8B5DE4657464E464546E0B50500036877
:1007F0005C695F689E68DA6891461A6990469A69F2
:100800009246E2075CD5F20715D501229A60B3073C
:1008100007D4730730D4330708D580235B019B4688
:100820000BE0FFF7D1FF00239B4606E0FFF7CFFF69
:1008300000239B4601E000239B46F3050CD52B6863
:10084000802252009A60B3051AD473051CD5802308
:100850009B015A461A439346F30333D52B688022F3
:1008600052029A60B3031BD473031DD580231B026D
:100870005A461A43934625E080231B019B46DCE73A
:100880002800FFF7A2FFE7E7330505D58023DB014A
:100890005A461A439346DFE72800FFF799FFDBE744
:1008A0002800FFF793FF0DE0330305D580235B029B
:1008B0005A461A43934605E02800FFF78AFF01E0F5
:1008C00000239B4623070AD54B46DB0607D580232A
:1008D0009B005A461A4393462B681022DA6063073E
:1008E00002D54B461B0758D4A30703D52B68DB68FA
:1008F0009B0759D163060AD54346DB0607D58023FB
:10090000DB005A461A4393462B6810221A61A3064D
:1009100002D543461B074BD4E30603D52B681B695E
:100920009B074CD1A30301D5FB064CD4E30301D5AF
:100930003B074FD4230469D57B0764D5E30506D56F
:100940005346DB0703D501235A461A439346A305B2
:1009500006D553469B0703D502235A461A439346AE
:10096000630506D553465B0703D504235A461A434D
:100970009346230547D570235246134043D0302B6E
:100980004DD02ED9502B4FD0602B52D0402B35D18B
:1009900040235A461A43934630E02B680822DA6017
:1009A0002800FFF718FF9FE72800FFF713FFA1E7D4
:1009B0002B6808221A612800FFF70EFFACE7280019
:1009C00001F056FAAEE72B6810225A602800FFF7B4
:1009D00004FFABE72B6808225A602800FFF7FEFEF1
:1009E000A8E7102B06D0202B08D110235A461A4313
:1009F000934603E008235A461A4393462A689369AC
:100A000070218B4393612B6804225A605B46002B54
:100A100015D13CBC90469946A246AB46F8BD202372
:100A20005A461A439346E9E780235A461A439346A7
:100A3000E4E780235B005A461A439346DEE76B6A7D
:100A40005A4613436B622800FFF7C9FEE1E7000036
:100A500070B5002811DB8308144DC0339B005C592E
:100A600003221040C000FC3216008640B4438901C6
:100A70000A40824022435A5170BDC0B20F23034046
:100A8000083B9B0806339B00094A944663445D6813
:100A900003242040C000FF2214008440A5438901A4
:100AA0001140814029435960E6E7C04600E100E07B
:100AB00000ED00E0002805DB1F2318401E3B8340AB
:100AC000014A13607047C04600E100E001380A4B5C
:100AD00098420FD8094A50600948036A1B021B0A52
:100AE000C02109060B4303620023936007331360A0
:100AF000002070470120FCE7FFFFFF0010E000E04E
:100B000000ED00E0042805D0054A136804218B435A
:100B100013607047024A136804210B431360F8E71F
:100B200010E000E010B501F0D1FA10BD10B521239E
:100B3000C35C022B03D004238363012010BD026831
:100B400013680E218B43136001680A6801239A43DE
:100B50000A60C26B1900046CA140516021228354C9
:100B60001F330022C254436B002B02D09847002051
:100B7000E4E70020E2E70000F0B5C64600B582B029
:100B800000236EE084683440A446CC68BC406246D2
:100B9000144384604468AC434A6812090125154037
:100BA0009D4025434560C46826408C68BC40344362
:100BB000C4604A68D20053D54A4DAE690124264329
:100BC000AE61AD692C400194019C9C08A51CAD0050
:100BD000454EAF5903251D40AD000F26AE40B7432B
:100BE0009026F605B04275D0404EB04274D0404ECB
:100BF000B0426DD00526AE4035003D430234A4001E
:100C0000394EA5513B4C25684246D4432E00264020
:100C10004A68D20302D5424615432E00354D2E6058
:100C20006D682E0026404A68920302D5424615435D
:100C30002E00304D6E60AD682E0026404A68D2020C
:100C400002D5424615432E002A4DAE60ED682C4079
:100C50004A68920202D542462A431400254AD460CB
:100C600001330A681400DC4038D001259D402A4039
:100C70009046F5D04C68022C01D0122C0ED1DC0825
:100C80000834A400275807261E40B6000F22B240A1
:100C900097430A69B24016003E43265002685F003F
:100CA00003242600BE40F643324094464A6814406E
:100CB000BC406246144304604C68621E012A00D89E
:100CC00060E7112C00D15DE7122C00D06BE759E7EB
:100CD000022690E700268EE701268CE702B004BCCE
:100CE0009046F0BD001002400000014000040048A2
:100CF000000800480004014070B582B0041E00D115
:100D000085E20368DB072BD5B34B5A680C231340ED
:100D1000042B1DD0B04B5A680C231340082B0ED067
:100D20006368012B41D0002B56D1AB4B1A68AB49FD
:100D30000A401A601A68AA490A401A603BE0A64BAA
:100D40005B68C02252021340802252029342E7D1D4
:100D5000A14B1B689B0303D56368002B00D159E2AC
:100D600023689B0778D59C4B5B680C221A4262D0A3
:100D7000994B5A680C231340082B53D0E368002B7F
:100D800000D18BE0944A136801210B431360FFF7F5
:100D900089FA0500904B1B689B0776D4FFF782FA0F
:100DA000401B0228F6D9032032E28B4A11688023C7
:100DB0005B020B4313606368002B25D0FFF772FAC8
:100DC0000500854B1B689B03CAD4FFF76BFA401BD9
:100DD0006428F6D903201BE2052B09D07E4B1A6844
:100DE0007E490A401A601A687D490A401A60E2E7A3
:100DF000794B19688022D2020A431A60196880224E
:100E000052020A431A60D6E7FFF74CFA0500724B0C
:100E10001B689B03A4D5FFF745FA401B6428F6D94D
:100E20000320F5E16C4B5B68C02252021340802224
:100E300012029342A2D1684B1B689B0704D5E3685A
:100E4000012B01D00120E3E163490B68F8229343B1
:100E50002269D20013430B6023681B0744D5E36962
:100E6000002B2ED05C4A536A01210B435362FFF7DB
:100E700019FA0500584B5B6A9B0735D4FFF712FA45
:100E8000401B0228F6D90320C2E153490B68F8221F
:100E900093432269D20013430B60DDE74E4A136887
:100EA00001218B431360FFF7FDF905004A4B1B68D6
:100EB0009B07D1D5FFF7F6F9401B0228F6D903208E
:100EC000A6E1454A536A01218B435362FFF7EAF9D1
:100ED0000500414B5B6A9B0706D5FFF7E3F9401B12
:100EE0000228F6D9032093E123685B0700D47FE052
:100EF000394BDB69DB001DD4374AD16980204005BE
:100F00000143D161D36903400193019B0125354B16
:100F10001B68DB0510D5A368012B21D0002B36D12F
:100F20002D4B1A6A01218A431A621A6A03318A43D5
:100F30001A621AE00025EAE72A4A116880235B005A
:100F40000B431360FFF7AEF90600264B1B68DB0569
:100F5000E1D4FFF7A7F9801B6428F6D9032057E1F5
:100F60001D4A136A01210B431362A368002B24D08E
:100F7000FFF798F90600184B1B6A9B0736D4FFF75A
:100F800091F9801B184B9842F5D9032040E1052BBD
:100F900009D0114B1A6A01218A431A621A6A033175
:100FA0008A431A62E1E70C4B1A6A04210A431A6267
:100FB0001A6A03390A431A62D7E7FFF773F9060082
:100FC000054B1B6A9B0711D5FFF76CF9801B064B7D
:100FD0009842F5D903201BE100100240FFFFFEFFFD
:100FE000FFFFFBFF0070004088130000012D3AD086
:100FF0002368DB0610D56369012B3AD0053358D13D
:10100000884A536B04218B435363536BF4318B43F6
:10101000A169C9000B43536323689B0600D482E097
:10102000804B5A680C2313400C2B60D07D4B5A68C0
:101030000C231340082B53D0236A002B60D0794A2D
:10104000516B80235B020B435363FFF72BF90500C1
:10105000744B5B6BDB0366D4FFF724F9401B02285B
:10106000F6D90320D4E06F4AD3696F490B40D361AE
:10107000BEE76C4B5A6B04210A435A635A6B03391F
:101080000A435A63FFF70EF90500664B5B6B9B073B
:1010900006D4FFF707F9401B0228F6D90320B7E072
:1010A00060494B6BF8229343A269D20013434B6310
:1010B000B2E75C4B5A6B04210A435A635A6B0339FB
:1010C0008A435A63FFF7EEF80500564B5B6B9B07AC
:1010D000A2D5FFF7E7F8401B0228F6D9032097E0D6
:1010E000504B5B68C022520213409342A4D14D4B37
:1010F0005B6BDB0317D5236A012B14D0012087E03B
:10110000484A536B49490B405363FFF7CBF805003E
:10111000444B5B6BDB0306D5FFF7C4F8401B02288A
:10112000F6D9032074E0636A002B00D174E03D4AD5
:1011300051680C220A40082A4DD0022B12D0394A9D
:1011400013683B490B401360FFF7ACF80400354BC4
:101150001B689B013DD5FFF7A5F8001B0228F6D9B7
:10116000032055E02F4A136831490B401360FFF705
:1011700099F805002B4B1B689B0106D5FFF792F8E9
:10118000401B0228F6D9032042E0264BDA6A0F21E1
:101190008A43216B0A43DA625A6826490A40E16AA7
:1011A000A06A01430A435A601968802252040A4324
:1011B0001A60FFF777F804001A4B1B689B0106D4EE
:1011C000FFF770F8001B0228F6D9032020E000206A
:1011D0001EE000201CE0012B20D0124B5A68D96A77
:1011E000C0235B021340A06A834201D001200FE0BC
:1011F0000F230B40216B8B4201D0012008E0F0232C
:101200009B031A40E36A9A420AD0012000E00120C1
:1012100002B070BD0120FBE70020F9E70120F7E7ED
:101220000020F5E700100240FFFFFFEFFFFFFEFF89
:10123000FFFFFFFEFF7FC2FF30B589B004AA1F4B3E
:10124000180032C832C2110002680A606A461033C0
:1012500013CB13C21B681360194B5A680C2313403D
:10126000082B04D00C2B26D0164809B030BD910CA9
:101270000F23194004A8445C1149C96A0B40694610
:10128000C95CC0235B021A4080235B029A4208D0EB
:10129000C0235B029A4209D00A48FEF735FF60433B
:1012A000E3E70848FEF730FF6043DEE70648FEF755
:1012B0002BFF6043D9E70448D7E7C046282300083E
:1012C0000010024000127A00006CDC0270B50400CD
:1012D0000D00002800D189E0464B1A680123134015
:1012E0008B420BD243490B68012293432B430B6083
:1012F0000B681A40AA4201D0012078E023689A07BF
:101300000ED55B0705D53C4A5168E023DB000B4353
:101310005360394A5368F0218B43A1680B435360F3
:101320002368DB0735D56368012B09D0022B24D055
:10133000032B28D0304A1268920705D4012056E0CA
:101340002D4A1268920353D52B494A6803208243E1
:1013500013434B60FEF7A6FF0600274B5B680C2289
:101360001A4063689B009A4213D0FEF79BFF801BD4
:10137000224B9842F1D9032039E01F4A12689201AA
:10138000E2D4012033E01C4A526BD203DCD40120AA
:101390002DE0184B1A6801231340AB420BD91549B5
:1013A0000B68012293432B430B600B681A40AA423F
:1013B00001D001201BE023685B0706D50E4A536865
:1013C0000F490B40E1680B435360FFF735FF0A4BB1
:1013D0005A6812090F2313400A4AD35CD8400A4BBB
:1013E00018600020FEF71CFF002000E0012070BD07
:1013F0000120FCE70020024000100240881300009A
:10140000FFF8FFFF4823000808000020014B186880
:101410007047C0460800002010B5FFF7F7FF044BE7
:101420005A68120A07231340024AD35CD84010BD01
:10143000001002405823000870B582B00400036811
:10144000DB0335D5464BDB69DB005CD4444AD1690C
:10145000802040050143D161D36903400193019B82
:101460000125404B1B68DB054FD53D4B1B6AC02255
:101470009200134013D061680A409A420FD0384B53
:10148000186A394A02401E6A8021490231431962B2
:10149000196A364E314019621A62C30749D4304A7C
:1014A000136A31490B4061680B431362012D4FD021
:1014B0002368DB0706D52A4A136B03218B43A168F7
:1014C0000B43136323689B0606D5254A136B102133
:1014D0008B43E1680B43136323689B0306D5204AC3
:1014E000136B80218B4361690B43136323685B0596
:1014F00033D51B4A136B40218B4321690B43136384
:10150000002002B070BD0025ABE7164A11688023A9
:101510005B000B431360FEF7C5FE0600114B1B6812
:10152000DB05A2D4FEF7BEFE801B6428F6D903209B
:10153000E7E7FEF7B7FE0600094B1B6A9B07AED430
:10154000FEF7B0FE801B0A4B9842F5D90320D8E77E
:10155000D36908490B40D361AAE70020D1E7C04610
:101560000010024000700040FFFCFFFFFFFFFEFF85
:1015700088130000FFFFFFEF0268136806490B4065
:101580001360026893682331FF318B4393602023FB
:101590008367002303667047DFFEFFFF30B5836F6C
:1015A000202B6DD1002900D16CE0002A00D16BE026
:1015B000836880246401A3421AD07024045D012C46
:1015C00064D07024012505554165582142520231ED
:1015D0004252002202668022520193420FD0002B19
:1015E0001CD10369002B15D15C33FF22C2521CE0D1
:1015F0000469002CE1D1CC07DFD5012041E003696B
:10160000002B03D15C33224AC2520EE05C23FF223E
:10161000C2520AE05C237F22C25206E080225205B9
:1016200093421CD05C230022C2520023C3672233A2
:1016300083670268936801210B43936080235B01F9
:1016400082689A4216D0134B036670230022C2545C
:1016500002681168B0330B431360002011E0036986
:10166000002B03D15C337F22C252DEE75C233F2292
:10167000C252DAE70369002BE5D1074B0366E4E7C2
:10168000022030BD0120FCE70120FAE70220F8E744
:10169000FF010000B91600081D170008704710B5BB
:1016A0000268136840218B431360202343670023A3
:1016B0004366FFF7F3FF10BD10B55C23C35A826F7A
:1016C000222A05D00268936908210B43936110BD5B
:1016D0000268928CDBB21340426D1370436D01338C
:1016E00043655A22835A013B9BB28352835A9BB271
:1016F000002BECD10268136807490B4013600268A5
:1017000093682331FF318B43936020238367002349
:10171000036600F0C5FBDAE7DFFEFFFF10B55C23D0
:10172000C25A836F222B05D00268936908210B43AC
:10173000936110BD03689B8C1340426D1380436D11
:10174000023343655A22835A013B9BB28352835A28
:101750009BB2002BEDD10268136808490B4013605F
:10176000026893682331FF318B43936020238367A2
:101770000023036600F094FBDBE7C046DFFEFFFFBB
:101780007047000070B504000168CB6908688D6877
:10179000534A1A400AD19E0608D5860606D5236EFE
:1017A000002B00D196E02000984793E0002A78D0E3
:1017B00001222A4003D190267600304271D0DD0705
:1017C00006D5C50504D501250D62E16F2943E16702
:1017D000990708D5002A06D0216802250D62E16F1D
:1017E00002352943E167590708D5002A06D0216848
:1017F00004250D62E16F023D2943E167190709D510
:10180000810601D4002A05D0226808211162E26F06
:101810000A43E2671A0509D5420107D522688021EB
:1018200009011162E26F20210A43E267E26F002A98
:1018300050D09B0606D5830604D5236E002B01D01D
:1018400020009847E26F23689B685B0602D4282338
:10185000134220D02000FFF78FFE23689A685206BB
:1018600015D59A6840218A439A60E36E002B0AD00E
:101870001C4A5A63E06EFFF759F900282AD0E06E3F
:10188000436B984726E02000FFF77AFF22E0200014
:10189000FFF776FF1EE02000FFF772FF0023E367EB
:1018A00018E0DA0201D56A0209D41A060ED502063A
:1018B0000CD5636E002B0DD0200098470AE08023E2
:1018C0005B030B62200000F0AFFA03E05B0601D57A
:1018D000430600D470BD2000FFF7E1FEFAE7C046E2
:1018E0000F080000E918000810B5406A00235A22CA
:1018F0008352083A8352FFF743FF10BD10B504002E
:1019000083680269134342691343C2691343016840
:101910000A686A48024013430B60226853686849AA
:101920000B40E1680B435360226AA3691A432168A4
:101930008B686448034013438B602368624A934278
:101940001FD0624A934230D0102380221202E169F4
:1019500091422ED0022B00D190E077D9042B00D1F8
:1019600098E0082B00D0A1E06368580880231B0290
:101970009C4660446168FEF7C7FB03041B0C002013
:1019800071E0534B1A6B03231340012B09D0002B3A
:1019900005D0022B07D0032B09D01023D5E7002355
:1019A000D3E70423D1E70823CFE70023CDE70223C1
:1019B000CBE7022B2ED010D9042B37D0082B42D1E5
:1019C0006368580880235B029C4660446168FEF7A8
:1019D0009BFB03041B0C00200DE0002B33D1FFF711
:1019E0001BFD400063685B08C0186168FEF78CFB54
:1019F00003041B0C002037491A00103A8A4258D8B9
:101A00000F22190091435B08083A13400B432268E8
:101A1000D3602FE0636858082F4B9C466044616890
:101A2000FEF772FB03041B0C0020E4E7FFF704FC45
:101A3000400063685B08C0186168FEF765FB03043B
:101A40001B0C0020D7E701200023D4E7002B2DD169
:101A5000FFF7E2FC63685B0818186168FEF754FB47
:101A600003041B0C00201B491A00103A8A4222D89A
:101A70002268D36000232366636610BD636858083C
:101A8000164B9C4660446168FEF73EFB03041B0C4A
:101A90000020E8E7FFF7D0FB63685B08181861686F
:101AA000FEF732FB03041B0C0020DCE701200023BF
:101AB000D9E70120DEE70120DCE7C046F369FFEF4C
:101AC000FFCFFFFFFFF4FFFF00380140004400405C
:101AD00000100240EFFF00000024F40000127A0022
:101AE000436ADB0706D5026853682C490B40816ABC
:101AF0000B435360436A9B0706D502685368284925
:101B00000B40C16A0B435360436A5B0706D502680A
:101B1000536824490B40016B0B435360436A1B0716
:101B200006D50268536820490B40416B0B43536054
:101B3000436ADB0606D5026893681C490B40816B3B
:101B40000B439360436A9B0606D502689368184965
:101B50000B40C16B0B439360436A5B060BD5026875
:101B6000536814490B40016C0B43536080235B03A3
:101B7000026C9A420AD0436A1B0606D50268536873
:101B80000D490B40816C0B435360704702685368EA
:101B90000A490B40416C0B435360ECE7FFFFFDFF2C
:101BA000FFFFFEFFFFFFFBFFFF7FFFFFFFEFFFFFDA
:101BB000FFDFFFFFFFFFEFFFFFFFF7FFFFFF9FFFCD
:101BC000F0B5C64600B505000C0017009846069E05
:101BD0002B68DB6923401B1B5A425341BB423AD15D
:101BE000731CF5D0FEF75EFB4346C01AB0421FD807
:101BF000002E1DD02B681A685207E9D5DA69120544
:101C0000E6D5802212011A622A68136814490B4033
:101C100013602A689368A331FF318B4393602023BC
:101C20006B67AB67EB6750330022EA54032013E085
:101C30002A6813680A490B4013602A689368A33125
:101C4000FF318B43936020236B67AB6750330022D7
:101C5000EA54032000E0002004BC9046F0BDC046DA
:101C60005FFEFFFFF0B585B004000E0017001D00F9
:101C7000436F202B5FD1002960D0002A60D08023E1
:101C80005B0182689A4218D07023E35C012B59D023
:101C900070230122E2540023E36721336367FEF7D8
:101CA00001FB03905023E7520233E75280235B018C
:101CB000A2689A4208D0002719E00369002BE3D1FB
:101CC000CB07E1D5012037E02369002B01D00027A5
:101CD0000DE0370000260AE03B88DB05DB0D2268BB
:101CE000138502375222A35A013B9BB2A3525223BF
:101CF000E35A9BB2002B0FD00095039B002280215A
:101D00002000FFF75DFF00281ED1002EE4D03378BD
:101D1000226813850136E5E70095039B00224021E8
:101D20002000FFF74DFF002810D1202363675033B8
:101D30000022E25400E0022005B0F0BD0120FBE7E4
:101D40000120F9E70220F7E70320F5E70320F3E796
:101D500030B583B004000023C367FEF7A3FA050083
:101D600023681B681B070CD423681B685B0715D40A
:101D700020236367A36750330022E254002003B09E
:101D800030BD80210C4B009303000022890320000A
:101D9000FFF716FF0028E7D00320F0E78021064B6D
:101DA00000932B000022C9032000FFF709FF002841
:101DB000DED00320E3E7C046FFFFFF0110B5041E9D
:101DC0002ED0436F002B21D0242363672268136831
:101DD00001218B4313602000FFF790FD012814D0F0
:101DE000636A002B18D1226853680E490B40536078
:101DF000226893682A218B439360226813682939EB
:101E00000B4313602000FFF7A3FF10BD70330022C7
:101E1000C25400F0CBF9D7E72000FFF761FEE2E7FC
:101E20000120F2E7FFB7FFFF7047000082B0064ACB
:101E3000516980208002014351615369034001933D
:101E4000019B02B07047C0460010024010B500224E
:101E500000211B20FEF7FCFD1B20FEF72BFE0022BD
:101E600000211E20FEF7F4FD1E20FEF723FE10BD0C
:101E700010B58AB004000822002108A800F040FA3A
:101E800008AB01AA01212000FEF7EAFB6423082227
:101E900008A90248FFF7E6FE0AB010BD7000002056
:101EA00010B50B4B984205D008220A490848FFF7A5
:101EB00075FB10BD0023072B06D8064AD15CD2184B
:101EC00011720133DBB2F6E7024B01221A74EBE721
:101ED000700000202800002000B58BB0002305937F
:101EE0000693012207920849029103934001009052
:101EF0000193049208920E33099304486946143002
:101F0000FEF77DFA0BB000BDE0FF000028000020C6
:101F1000FEE7000010B51248124B436108238361AD
:101F20000023C36103628022920242628022520334
:101F300082622C2283540132835401328354013251
:101F400083540132835431332F3AC2541430FEF794
:101F5000AFF9002800D110BDE7210348FFF7D8FFF3
:101F600028000020006400406023000810B50C48E1
:101F70000C4B0360E1235B02436000238360C3607A
:101F800003610C2242618361C36103624362FFF714
:101F900015FF002800D110BDFC210348FFF7B8FF52
:101FA00070000020003801406023000800B599B09F
:101FB00020230B931F3B1393002314930BA8FEF7CE
:101FC0009BFE002828D107230793043B0893002396
:101FD00009930A93012107A8FFF778F900281FD178
:101FE000012301930023039301A8FFF725FA00289A
:101FF0001AD1FFF70BFAFA218900FEF785F8FEF7F0
:1020000065FD0420FEF77EFD0120002200214042F4
:10201000FEF71EFD19B000BDA4210548FFF778FFAB
:10202000B1210348FFF774FFB8210148FFF770FFA3
:102030006023000810B5FEF719F9FFF7B7FFFFF7A7
:10204000F5FEFFF767FFFFF791FFFFF7FFFE0220A6
:10205000FFF742FF084C200014301021FEF7A1FBCF
:10206000082221000548FFF799FA0822024903488F
:10207000FFF794FAF9E7C04628000020700000201E
:1020800030B589B00C0002A9029008230B6100232F
:102090004B60CB608B600B750B4801AB220014309A
:1020A000FEF733FA002801D109B030BD064D1435D2
:1020B00001992800FEF7ABFA01AB220002A9280023
:1020C000FEF723FAF0E7C0462800002010B50D4ABD
:1020D0003C23D35C092B06D9137C002B09D1094A78
:1020E0003C230021D15407493C228B5C01338B54A3
:1020F00010BD1400110008310120FFF7C1FF0023BB
:102100002374ECE72800002000B583B0124B9969D6
:1021100001221143996199690A400092009ADA6993
:10212000802149050A43DA61DB690B400193019B79
:102130000520002200214042FEF78AFC02200022F6
:1021400000214042FEF784FC012000220021404291
:10215000FEF77EFC03B000BD0010024000B587B062
:102160000268104B9A4201D007B000BD0E4AD169F7
:10217000802080040143D161D36903400093009B18
:10218000C0235B01019302230293002303930333D3
:10219000049301330593902001A9C005FEF7ECFCE0
:1021A000E2E7C046006400400010024000B587B07E
:1021B0000268104B9A4201D007B000BD0E4A9169E7
:1021C0008020C00101439161936903400093009B0B
:1021D000C023DB0001930223029300230393033304
:1021E0000493023B0593902001A9C005FEF7C4FCAF
:1021F000E2E7C04600380140001002407047FEE7A9
:102200007047704710B5FEF741F8FEF78BFC10BD24
:1022100010B50248FFF7B6FA10BDC04670000020A6
:1022200010B50248FEF7DCFA10BDC0463C000020A5
:10223000704700001348854613480168090E134A89
:10224000914205D1124813490160134813490160B6
:1022500013481449144A002302E0D458C4500433EC
:10226000C4188C42F9D3114A114C002301E01360C9
:102270000432A242FBD3FFF7DBFF00F01DF8FFF7AB
:10228000D9FEFEE700180020040000001F00000037
:102290001810024001000000000001400000000092
:1022A000000000200C000020782300080C00002013
:1022B000F4000020FEE7000070B500260C4D0D4C28
:1022C000641BA410A64209D1002600F021F80A4D93
:1022D0000A4C641BA410A64205D170BDB300EB5894
:1022E00098470136EEE7B300EB5898470136F2E71E
:1022F000702300087023000870230008742300086E
:1023000003001218934200D1704719700133F9E7A6
:10231000F8B5C046F8BC08BC9E467047F8B5C04644
:08232000F8BC08BC9E467047A2
:1023280002030405060708090A0B0C0D0E0F10100E
:102338000102030405060708090A0B0C0D0E0F100D
:10234800000000000000000001020304060708095D
:1023580000000000010203042E2E2F5372632F6D1C
:0823680061696E2E63707000C4
:04237000E900000878
:04237400C10000089C
:0C237800010000000400000000127A00C8
:040000050800223598
:00000001FF
